:020000040808EA
:100000000000080890110808000004000A0005011B
:0800100004020D0000000000D5
:100018000810080809480A4908B5884205D0094A5D
:10002800824202D0121A00F0C7FF0748074A00218F
:10003800121A00F0CCFF064808BD00BF00040020DB
:10004800641108080404002004040020900600201D
:100058009006002070B500F02DFE074B074C1E4699
:10006800E41AA4080025A54204D056F8253098477C
:100078000135F8E770BD00BF0011080858110808DD
:1000880000F0EAB808B500F001F9BDE8084000F052
:10009800FBBD00F0CDB90078B0FA80F04009704798
:1000A800012303707047000030B5044695B06846D8
:1000B80021460022032300F05FFC04A82146042205
:1000C800072300F059FC08A8214608220B2300F05A
:1000D80053FC0C220F2321460CA800F04DFC00F025
:1000E80027FD594C0546214610A800F0E3FB694658
:1000F80010A800F034FC03462846196800F001FBFC
:1001080010A800F095FB00F06FFD2146054610A8E9
:1001180000F0D0FB694610A800F021FC03462846F1
:10012800196800F0EEFA10A800F082FB322000F007
:100138008FF900F0FDFC454C0546214610A800F05B
:10014800B9FB04A910A800F00AFC03462846196860
:1001580000F0D7FA10A800F06BFB00F045FD21462F
:10016800054610A800F0A6FB04A910A800F0F7FBAC
:1001780003462846196800F0C4FA10A800F058FB96
:10018800322000F065F900F0D3FC314C05462146D9
:1001980010A800F08FFB08A910A800F0E0FB0346A8
:1001A8002846196800F0ADFA10A800F041FB00F0ED
:1001B8001BFD2146054610A800F07CFB08A910A8E5
:1001C80000F0CDFB03462846196800F09AFA10A8FB
:1001D80000F02EFB322000F03BF900F0A9FC1D4C8A
:1001E8000546214610A800F065FB0CA910A800F0F0
:1001F800B6FB03462846196800F083FA10A800F0F9
:1002080017FB00F0F1FC2146054610A800F052FB50
:100218000CA910A800F0A3FB03462846196800F0B3
:1002280070FA10A800F004FB0CA800F001FB08A865
:1002380000F0FEFA04A800F0FBFA684600F0F8FAAD
:10024800012015B030BD00BF1C1008082010080898
:10025800241008082810080808B5094A09490A4856
:1002680000F064F900F064FC4FF4165100F05CFCF7
:1002780000F0BAFCBDE808404FF4165100F0B0BCDD
:100288002C100808B1000808090508087047000084
:1002980008B5094B002209491A7001230B70084957
:1002A8000A70084A1370084B02221A7000F020F8EE
:1002B800064B186008BD00BF0B0400201004002086
:1002C800090400200A040020080400200C0400206F
:1002D80008B5024B1B685B68019308BD9C010408C4
:1002E80008B5024B1B685B69019308BD9C010408B3
:1002F80008B5024B1B681B68019308BDB0010408D0
:1003080008B5024B1B68DB69019308BDB4010408FA
:1003180008B5024B1B681B68019308BDC40104089B
:1003280008B5024B1B685B68019308BDC40104084B
:1003380008B5024B1B689B68019308BDC4010408FB
:1003480008B5024B1B68DB68019308BDC4010408AB
:1003580008B5024B1B689B69019308BDC4010408DA
:1003680008B5024B1B685B6A019308BDC401040809
:1003780008B5024B1B689B6A019308BDC4010408B9
:1003880008B5024B1B68DB6A019308BDC401040869
:1003980008B5024B1B681B6B019308BDC401040818
:1003A80008B5024B1B685B6B019308BDC4010408C8
:1003B80008B5024B1B681B6C019308BDC4010408F7
:1003C80008B5024B1B685B6C019308BDC4010408A7
:1003D80008B5024B1B689B6C019308BDC401040857
:1003E80008B5024B1B68DB6C019308BDC401040807
:1003F80008B5024B1B685B68019308BDA40104089B
:1004080008B5024B1B685B69019308BDA401040889
:1004180008B5024B1B685B68019308BDCC01040852
:1004280008B5024B1B681B69019308BDC801040885
:1004380008B5024B1B685B68019308BDA00104085E
:1004480008B5024B1B689B68019308BDA00104080E
:100458000021FFF7D5BF0000064B002206491A709D
:1004680001230B7005490A70054A1370054B0222D7
:100478001A7070471404002015040020120400208C
:100488001304002011040020064B002206491A70AC
:1004980001230B7005490A70054A1370054B0222A7
:1004A8001A707047190400201A040020170400204D
:1004B8001804002016040020002001460246FFF719
:1004C800AFBF000038B50B4D28242846002122462E
:1004D80000F07DFD4FF0FF336B602C80064D074B1D
:1004E8002846002140F8043B224600F070FDAC800D
:1004F80038BD00BF480400201C0400204010080834
:1005080010B588B00446684600F0D4F9694604A8D6
:1005180000F0F2F904A8A047044604A800F088F9FE
:10052800684600F085F9204608B010BDF0B50746CA
:100538000E46154685B0102422466846002100F074
:1005480046FD22466846002100F041FD002069462C
:100558000246ADF80040029703960195FFF758FF51
:1005680005B0F0BD064B002206491A7001230B7036
:1005780005490A70054A1370054B02221A70704724
:100588007304002074040020710400207204002009
:1005980070040020064B002206491A7001230B70D4
:1005A80005490A70054A1370054B02221A707047F4
:1005B80078040020790400207604002077040020C5
:1005C80075040020064B002206491A7001230B709F
:1005D80005490A70054A1370054B02221A707047C4
:1005E8007D0400207E0400207B0400207C04002081
:1005F8007A040020704710B50446FFF74AFD2046EC
:1006080010BDF8B50F4600F10806051D002416F8C0
:10061800011D38460A2200F0AAF8AE42044407D069
:10062800002CF4D038462E2100F05CF80444EEE7A4
:100638002046F8BD10B59DF8084044EA032343EA74
:10064800024242EA0161416010BD000037B504462C
:10065800044D05609DF818500095FFF7EBFF204604
:1006680003B030BD50100808064B002206491A7026
:1006780001230B7005490A70054A1370054B0222C5
:100688001A70704782040020830400208004002030
:10069800810400207F040020F8B506460D468F1817
:1006A8000024BD420CD0336830469B6815F8011B06
:1006B8009847002801DB0444F3E7002C08BF0446F0
:1006C8002046F8BD70B505460C46084649B100F00D
:1006D8008EFC2B68024621462846BDE87040DB6840
:1006E800184770BD03689B68184738B50D21054643
:1006F800FFF7F8FF0A2104462846FFF7F3FF2044D6
:1007080038BD38B50546FFF7DDFF04462846FFF734
:10071800ECFF204438BD012A98BF0A2230B50B46A9
:100728008BB000218DF824100DF12304B3FBF2F5F2
:1007380005FB1233DBB2092B94BF30333733DBB2FE
:10074800214604F801392B46002DEFD1FFF7BAFFF7
:100758000BB030BD10B52AB9BDE810400368C9B266
:100768009B681847D2B2BDE81040FFF7D4BFFFF727
:10077800F1BF0000064B002206491A7001230B70D6
:1007880005490A70054A1370054B02221A70704712
:1007980087040020880400208504002086040020A7
:1007A80084040020704710B50446FFF772FC204609
:1007B80010BD000010B50446044B017103600846E3
:1007C800FFF79EFD0023A360204610BD68100808AF
:1007D800064B002206491A7001230B7005490A705E
:1007E800054A1370054B02221A7070478C040020CA
:1007F8008D0400208A0400208B0400208904002036
:10080800064B002206491A7001230B7005490A702D
:10081800054A1370054B02221A7070479104002094
:10082800920400208F040020900400208E040020F1
:1008380010B504460068FFF7FBFD204610BD10B553
:100848000446006808B1FFF7F3FD00232360A360A6
:10085800636010BD38B504460D4600680131FFF7E6
:10086800EFFD10B184E82100012038BD10B5036800
:10087800044613B143688B4207D22046FFF7EAFFCC
:1008880020B1A3680BB922681370012010BD70B5A0
:100898000E46114604461546FFF7E8FF18B92046EC
:1008A800FFF7CDFF04E0A5602068314600F097FB14
:1008B800204670BD38B5002304460360436083605A
:1008C80003730D4639B1084600F091FB29460246EC
:1008D8002046FFF7DCFF204638BD884210B50B469E
:1008E800044607D0096819B19A68FFF7D0FF01E0FC
:1008F800FFF7A5FF204610BD10B50446002303608E
:10090800436083600373FFF7E8FF204610BD38B5E6
:1009180005460C4641B1084600F069FB21460246EF
:100928002846FFF7B4FF01E0FFF789FF284638BDE6
:1009380070B5044683680E4609B9002070BD62B1DF
:10094800D5182946FFF792FF0028F6D02068A3683B
:100958003146184400F043FBA560012070BD0B46EA
:1009680010B59A6809680446FFF7E2FF10B92046F7
:10097800FFF765FF204610BD2DE9F0411C469A425D
:1009880088BF13460E46154688BF25460D4988BFC1
:100998001C460746FFF78EFFB1688D420FD88C4280
:1009A80028BF0C463368002213F804801A553168B2
:1009B80038462944FFF7ABFF336803F8048038460C
:1009C800BDE8F08127100808074B0020074A187077
:1009D80001231370064A1070064A1370064B022250
:1009E8001A70FFF705BD00BF960400209704002089
:1009F800940400209504002093040020064B002254
:100A080006491A7001230B7005490A70054A1370CC
:100A1800054B02221A7070479B0400209C0400209A
:100A2800990400209A04002098040020024B1A68B8
:100A3800024B1A60704700BF00040020A004002089
:100A4800064B002206491A7001230B7005490A70EB
:100A5800054A1370054B02221A707047A70400203C
:100A6800A8040020A5040020A6040020A404002057
:100A7800064B002206491A7001230B7005490A70BB
:100A8800054A1370054B02221A707047AC04002007
:100A9800AD040020AA040020AB040020A904002013
:100AA800704741747047007CFFF762BC007CFFF719
:100AB8005FBC007CFFF76CBC007CFFF761BC007C6E
:100AC800FFF76EBC10B50446FFF7E3FA204610BDE9
:100AD80070B5457C04460E4625B9007CFFF768FCD6
:100AE800002805DD207C3146BDE87040FFF738BCA2
:100AF800284670BD10B50446002060604FF47A7037
:100B0800A0600648217420600120607408461146E0
:100B18001A46FFF71DFC204610BD00BFA8100808A4
:100B2800007C0023FFF75CBC0022FFF7F9BF000040
:100B380038B50C4D296811F0010411D12846FFF78A
:100B4800AAFA68B12146084A084B0948FFF7D2FFBC
:100B58002846FFF7A5FA06480649074A00F054F95F
:100B6800034838BD480500204C050020C404002077
:100B7800B0040020A90A0808040400200174704782
:100B880070470020FFF7D4BB0120FFF7D1BBFFF768
:100B980017BC08B5FFF7C4FB08BD38B505460C46B9
:100BA800FFF70EFC002801DC287C18B12046FFF76F
:100BB800C7FB012038BDFFF70BBC10B50446FFF793
:100BC80068FA204610BD0000002242604FF47A7295
:100BD8008260024A0260012202747047D810080835
:100BE8000846FFF795BB000010B50A4C2368DB07E1
:100BF8000ED42046FFF74FFA50B10748FFF7E4FF3D
:100C08002046FFF74DFA04480449054A00F0FCF86D
:100C1800014810BDE4050020D0050020890B080814
:100C28000404002008B5134B33B1FFF7DDFF036858
:100C38001B699847002815DC0F4B33B1FFF778FF85
:100C480003681B69984700280FDC0C4B0BB1AFF306
:100C580000800B4B0BB1AFF300800A4B43B1AFF3ED
:100C6800008008BDAFF30080E6E7AFF30080ECE753
:100C780008BD00BF000000000000000000000000E8
:100C8800000000000000000008B5FFF7CBFFFFF7E9
:100C980027FB014B186008BDF00500200248034AF5
:100CA8000349121A00F088B900400240044002408B
:100CB8006011080838B5094C094D23685A1B53427E
:100CC8005341084A137013B9FFF7E8FF2560064B34
:100CD8001BB1FFF7FDFAAFF3008038BD00400240BA
:100CE8001E1C279AE805002000000000064B002281
:100CF80006491A7001230B7005490A70054A1370DA
:100D0800054B02221A707047EC050020ED05002003
:100D1800EA050020EB050020E9050020064B00222B
:100D280006491A7001230B7005490A70054A1370A9
:100D3800054B02221A707047F7050020F8050020BD
:100D4800F5050020F6050020F405002013B5084C31
:100D5800002100910A460B462046FFF777FC204603
:100D68000449054A02B0BDE8104000F04DB800BF84
:100D7800FC050020FD05080804040020184B00218C
:100D88002DE9F0411970174B01261E70164BDFF83C
:100D980070801970154B164D1E70164B164C022795
:100DA80040461F70FFF706FD4046DFF85880224690
:100DB800294600F029F831464046104EFFF7FAFC64
:100DC80022462946404600F01FF839463046FFF7CC
:100DD800F1FC304629462246BDE8F04100F014B83F
:100DE8000706002008060020050600200606002049
:100DF800AD0708080406002004040020240600208B
:100E08000C0600201806002003460846194600F084
:100E1800C5B80000244B1A68D0075CBF01221A60CD
:100E2800224B1A68D1075CBF01221A60204B1A684E
:100E3800D2075CBF01221A601E4B1A68D0075CBF3C
:100E480001221A601C4B1A68D1075CBF01221A6084
:100E58001A4B1A68D2075CBF01221A60184B1A682D
:100E6800D0075CBF01221A60164B1A68D1075CBF15
:100E780001221A60144B1A68D2075CBF01221A605B
:100E8800124B1A68D0075CBF01221A60104B1A680F
:100E9800D1075CBF01221A600E4B1A68D2075CBFEB
:100EA80001221A60704700BF5C0600205806002027
:100EB80054060020500600204C060020480600205A
:100EC80044060020400600203C060020380600208A
:100ED8003406002030060020244B1A68D0075CBF77
:100EE80001221A60224B1A68D1075CBF01221A60DE
:100EF800204B1A68D2075CBF01221A601E4B1A6881
:100F0800D0075CBF01221A601C4B1A68D1075CBF6E
:100F180001221A601A4B1A68D2075CBF01221A60B4
:100F2800184B1A68D0075CBF01221A60164B1A6862
:100F3800D1075CBF01221A60144B1A68D2075CBF44
:100F480001221A60124B1A68D0075CBF01221A608E
:100F5800104B1A68D1075CBF01221A600E4B1A6841
:100F6800D2075CBF01221A60704700BF8C060020C0
:100F78008806002084060020800600207C060020C9
:100F88007806002074060020700600206C060020F9
:100F980068060020640600206006002038B5054673
:100FA80004480C46134620B1022029462246AFF3D6
:100FB800008038BD0000000010B5431E0A4491426D
:100FC80004D011F8014B03F8014FF8E710BD0346B0
:100FD8000244934202D003F8011BFAE77047034624
:100FE80011F8012B03F8012B002AF9D170470346A9
:100FF80013F8012B002AFBD1181A0138704700009A
:101008001D0008085D000808890008088D00080808
:1010180000000000666C200066722000626C2000F0
:10102800627220006D6F766500000000000000000D
:101038000000000000000000C104080800000000D3
:1010480000000000000000000B060808FD05080865
:10105800FF05080800000000000000000000000074
:10106800AD070808AF0708085A00252B3033643A43
:10107800253032750025592D256D2D2564542548B8
:101088003A254D3A2553257A0061736374696D6575
:101098000000000000000000000000000000000048
:1010A800A90A0808CD0A0808D90A0808A1060808E4
:1010B800B50A0808C10A0808BB0A0808C70A0808C8
:1010C800AB0A0808AF0A080800000000000000008A
:1010D800890B0808C30B0808A30B0808A106080811
:1010E8009B0B08088B0B0808910B0808BF0B080816
:1010F800970B0808850B0808990208086104080876
:1011080091040808CD0408086D0508089D0508081D
:10111800CD050808710608087D070808D9070808DA
:1011280009080808D1090808050A0808350A08083E
:10113800490A0808790A0808F50C0808250D08085E
:10114800550D0808850D08081D0E0808E10E080849
:0811580000000000000000008F
:04116000000000008B
:0411640091100808D6
:10116800FFFFFFFF00000102030405060708090A44
:101178000B0C0D0E0F101112131415161718191A3F
:081188001B1C1D1E1F20280086
:041190007856341247
:0400000508080018CF
:00000001FF
