:1000000019C1000047C1000045C1000043C1000004
:1000100041C100003FC100003DC100003BC10000E4
:1000200039C1000037C1000035C1000033C10000F4
:1000300031C100002FC100002DC100002BC1000004
:1000400029C1000027C1000025C1000023C1000014
:1000500021C100001FC100001DC100000C948F08C9
:1000600019C1000017C1000015C1000013C1000034
:1000700011C100000FC100000DC100000BC1000044
:1000800009C1000007C1000005C1000003C1000054
:1000900023C7000057C70000FDC00000FBC00000E0
:1000A000F9C00000F7C00000F5C00000F3C0000078
:1000B000F1C00000EFC00000EDC00000EBC0000088
:1000C000E9C00000E7C00000E5C00000E3C0000098
:1000D000E1C00000DFC00000DDC00000DBC00000A8
:1000E000D9C00000BD09C209C709D109DB09540AFA
:1000F000E509ED09F509FF09090A130A220A2C0A84
:10010000540A360A400A4A0A750A780A670A6B0ACC
:10011000710AAF0A7C0A800A860A8A0A8E0A940A41
:10012000980A9C0AAF0AA20AA60AAA0A00000A0BA9
:1001300002090C0D0E080703040100000000000076
:1001400000000000000000000000000000000000AF
:10015000000000000000000012111000000000006C
:10016000000000000000000000000000000000008F
:1001700000000102102020080810204010204080BC
:10018000020102010804020101020408102040805B
:1001900080402010080402018004020180402010E9
:1001A0000804020108040201010204081020408032
:1001B0000102040810204080050505050705080810
:1001C0000808020202020A0A0808040404040101E1
:1001D00001010101010103030303030303030407F6
:1001E00007070C0C0C0C0C0C0C0C0202020206068D
:1001F0000606060606060B0B0B0B0B0B0B0B000083
:100200002200250028002B002E00310034000201BE
:100210000000050108010B01000021002400270057
:100220002A002D0030003300010100000401070105
:100230000A01D40711241FBECFEFD1E2DEBFCDBF2C
:1002400000E00CBF12E0A0E0B2E0E8EBF9E100E072
:100250000BBF02C007900D92AA33B107D9F723E074
:10026000AAE3B2E001C01D92AA31B207E1F712E0A1
:10027000C4E3D2E000E006C022970109FE010BBFF3
:100280000E947C0BC233D10780E00807A9F73DD755
:100290000C94DA0CB5CEFC01408D518D9A0120955D
:1002A00030952623372391E0232B09F490E026890B
:1002B0003789242735272623372381E0232B09F488
:1002C00080E089230895FC0146895789208D318D6E
:1002D000242735272623372391E0232B09F490E0A8
:1002E0009A01209530952623372381E0232B09F4AA
:1002F00080E089230895860F911DFC018081089577
:100300003FB7F894DC015B96ED91FC915C972081FE
:100310005A968C91282B20833FBF08953FB7F894BD
:10032000DC015E96ED91FC915F9720815D968C914A
:10033000282B20833FBF08958F929F92AF92BF9248
:10034000CF92DF92EF92FF920F931F93CF93DF93A1
:10035000EC0100E010E0912CA62EBB24A7FCB09489
:10036000C12CD12C7601C394802EC501002E02C071
:10037000959587950A94E2F780FF03C0CE01CEDF02
:100380000AC09FB7F894EE8DFF8D20818D8D8095EA
:10039000822380839FBF9FB7F894EB8DFC8D2081D3
:1003A0008A8D8095822380839FBF84E090E055D71B
:1003B000ECA1FDA180819BA1892351F0B701A60189
:1003C00004C0440F551F661F771F8A94D2F7942AE2
:1003D000CE0196DF0F5F1F4F0830110509F0C4CF23
:1003E000CE019CDF83E090E038D7892DDF91CF915B
:1003F0001F910F91FF90EF90DF90CF90BF90AF9043
:100400009F908F9008953FB7F894DC019196ED91FD
:10041000FC919297208190968C91282B20833FBF4E
:1004200008952FB7F894DC019196ED91FC91929785
:10043000308190968C918095832380832FBF08957F
:10044000CF92DF92EF92FF920F931F93CF93DF93A0
:10045000EC017B01C42EE5DF8701D12CC8018E1988
:100460009F098C159D0534F4F80161918F01CE012F
:1004700063DFF4CFCE01C7DF6AA570E080E090E0D3
:10048000DF91CF911F910F91FF90EF90DF90CF9070
:10049000BFC6CF93DF93EC0145E064E272E0D0DFAA
:1004A00049E06BE172E0CE01CBDF8CA5882329F017
:1004B00045E064E072E0CE01C3DF8DA5882329F01A
:1004C00049E062E172E0CE01BBDF49E069E072E041
:1004D000CE01DF91CF91B4CF2F923F924F925F9296
:1004E0007F928F929F92AF92BF92CF92DF92EF92C4
:1004F000FF920F931F93CF93DF93CDB7DEB729976A
:100500000FB6F894DEBF0FBECDBF4C01762E142F70
:1005100050D6F401C6A0D7A0E0A4F1A46C197D09BF
:100520008E099F090E94240C6B017C0120E030E8B9
:100530004BEB54E40E94D60C181614F4C401A9DF46
:10054000F40162A570E080E090E00E94260C1B019F
:100550002C019B01AC01C701B6010E94F40B87FF7F
:1005600009C0A7019601C201B1010E948F0B0E9430
:10057000F80B4ED61123D9F0612F70E080E090E0A7
:100580001F921F921F922FEF2F9320E4A22EB12CC7
:10059000C12CD12CE12CF12C8701EA9420E030E031
:1005A000A9016DD5162F0F900F900F900F90CE01CF
:1005B00001967C0189E0F70111928A95E9F781E0C3
:1005C000898382E48A837C821D8315E06E01FAE0D0
:1005D000CF0ED11CC401A2DEC40192DEC40121DF12
:1005E00083E090E03AD627011401F20161912F01D6
:1005F000C401A2DEF10181931F014C145D04A9F72F
:10060000F4018181893741F0C401FDDEF40181816B
:10061000807F803791F41CC0412C512C60E0C401D4
:100620008BDEF401E40DF51D8187FFEF4F1A5F0AA1
:100630008CE04816510491F7E7CFC4012ADFF4019A
:1006400062A570E080E090E0E3D5115009F0C2CFE0
:10065000F4018181807F803731F0F40182A58A30F6
:1006600010F48F5F82A7F401808D918D978B868B1C
:1006700083819481918F808F9CD5F40166A377A3A9
:1006800080A791A79181907F81E0903709F080E069
:1006900029960FB6F894DEBF0FBECDBFDF91CF9184
:1006A0001F910F91FF90EF90DF90CF90BF90AF9090
:1006B0009F908F907F905F904F903F902F900895E4
:1006C00040E060E009CF609140027091410277FF05
:1006D00002C06F5F7F4F7595679587E02BD660915D
:1006E0003E0270913F0277FF02C06F5F7F4F7595AA
:1006F000679586E01FD660913C0270913D0277FFBE
:1007000002C06F5F7F4F7595679585E013D6609146
:100710003A0270913B0277FF02C06F5F7F4F759581
:10072000679584E007D666E970E080E090E070D5D8
:10073000609140027091410277FF02C06D5F7F4F70
:10074000759567957595679587E0F4D560913E023C
:1007500070913F0277FF02C06D5F7F4F759567957F
:100760007595679586E0E6D560913C0270913D02F3
:1007700077FF02C06D5F7F4F75956795759567959B
:1007800085E0D8D560913A0270913B0277FF02C0B4
:100790006D5F7F4F759567957595679584E0CAD5B0
:1007A00066E970E080E090E033D560E070E087E0DB
:1007B000C1D560E070E086E0BDD560E070E085E026
:1007C000B9D560E070E084E0B5D510924102109296
:1007D000400210923F0210923E0210923D0210928F
:1007E0003C0210923B0210923A0208951F93CF935D
:1007F000DF93EB01909341028093400290933F027C
:1008000080933E0290933D0280933C0290933B0282
:1008100080933A0261E08CE1DCD611E0109345024E
:1008200061E08AE1D6D61093440261E088E1D1D636
:100830001093440261E086E1CCD6109342026091AD
:1008400040027091410287E075D560913E0270913F
:100850003F0286E06FD560913C0270913D0285E0D9
:1008600069D560913A0270913B0284E063D5BE0184
:10087000882777FD8095982FCBD4DF91CF911F915A
:1008800022CFCF93DF93EB019093410280934002FC
:1008900090933F0280933E0290933D0280933C02EE
:1008A00090933B0280933A0260E08CE192D61092E2
:1008B000450260E08AE18DD61092440260E088E152
:1008C00088D61092430260E086E183D610924202FD
:1008D000609140027091410287E02CD560913E0208
:1008E00070913F0286E026D560913C0270913D02F6
:1008F00085E020D560913A0270913B0284E01AD5E0
:10090000BE01882777FD8095982F82D4DF91CF9103
:10091000DACE1F93CF93DF93EB0190934102809344
:10092000400290933F0280933E0290933D02809359
:100930003C0290933B0280933A0260E08CE149D6FE
:100940001092450261E08AE144D611E0109344021E
:1009500060E088E13ED61092430261E086E139D63C
:1009600010934202609140027091410287E0E2D40C
:1009700060913E0270913F0286E0DCD460913C02BF
:1009800070913D0285E0D6D460913A0270913B02AD
:1009900084E0D0D4BE01882777FD8095982F38D485
:1009A000DF91CF911F918FCE1F93CF93DF93EB01F8
:1009B000909341028093400290933F0280933E02C5
:1009C00090933D0280933C0290933B0280933A02C5
:1009D00061E08CE1FED511E01093450260E08AE110
:1009E000F8D51092440261E088E1F3D510934302F8
:1009F00060E086E1EED51092420260914002709173
:100A0000410287E097D460913E0270913F0286E0F8
:100A100091D460913C0270913D0285E08BD460914D
:100A20003A0270913B0284E085D4BE01882777FDAD
:100A30008095982FEDD3DF91CF911F9144CECF9326
:100A4000DF93EC0161E082E3C4D5BE01882777FD26
:100A50008095982FDDD360E082E3DF91CF91B9C517
:100A600061E087E07DD561E086E07AD561E085E0F0
:100A700077D561E084E074D561E08CE171D561E007
:100A80008AE16ED561E088E16BD561E086E168D5E9
:100A900061E082E365D526E040E855E260E070E081
:100AA00084E792E0B9C1CF92DF92EF92FF9268E0C3
:100AB00086E492E020DC682F70E080E090E0C4D60D
:100AC0006B017C0186E492E0FBDD60E070E286E48D
:100AD00092E0E1DB882329F064E670E08FEF90E09C
:100AE00085DE60E070E286E492E0EDDB8111EBDD13
:100AF00060E072E086E492E0CEDB882329F064E6D1
:100B000070E08FEF90E0BDDE60E072E086E492E09E
:100B1000DADB8111D8DD60E070E486E492E0BBDBD3
:100B200060E070E486E492E0CEDB60E070E186E4B1
:100B300092E0B1DB882319F060E082E34AD560E0FF
:100B400070E186E492E0BFDB882319F061E082E384
:100B500040D560E070E886E492E09DDB882319F0E0
:100B600084EF91E06CDF60E070E886E492E0ABDB5C
:100B700060E170E086E492E08EDB882329F064E691
:100B800070E086E490E0C5DE60E470E086E492E028
:100B900082DB882329F064E670E086E490E004DFDD
:100BA00060E170E086E492E08EDB81118CDD60E430
:100BB00070E086E492E087DB811185DD20E030E0A3
:100BC000A901C701B60110D6811103C060E082E31C
:100BD00000D520E030E0A901C701B601E7D618161C
:100BE0003CF461E082E3FF90EF90DF90CF90F1C49E
:100BF000FF90EF90DF90CF900895FC01818D228DC2
:100C000090E0805C9F4F821B91098F739927089514
:100C1000FC01918D828D981731F0828DE80FF11DC6
:100C2000858D90E008958FEF9FEF0895FC01918DE1
:100C3000828D981761F0828DDF01A80FB11D5D963E
:100C40008C91928D9F5F9F73928F90E008958FEFAC
:100C50009FEF089580E090E0892B41F080E090E0E4
:100C6000892B21F00E940000811124C08BEC97E0B9
:100C7000892B39F080E090E0892B19F08CD181111B
:100C80001CC080E090E0892B41F080E090E0892B4F
:100C900021F00E940000811113C080E090E0892BB8
:100CA000A1F080E090E0892B81F00E94000081118A
:100CB0000AC008950E940000D9CF0E940000E1CF31
:100CC0000E940000EACF0C9400000895FC01848D7E
:100CD000DF01A80FB11DA35ABF4F2C91848D90E066
:100CE00001968F739927848FA689B7892C93A08941
:100CF000B1898C9180648C93938D848D981306C0F8
:100D00000288F389E02D80818F7D80830895CF93C1
:100D1000DF93EC01888D8823C1F0EA89FB8980810B
:100D200085FD05C0A889B9898C9186FD0EC00FB6D6
:100D300007FCF5CF808185FFF2CFA889B9898C9116
:100D400085FFEDCFCE01C2DFE8CFDF91CF910895CF
:100D5000CF92DF92FF920F931F93CF93DF931F9257
:100D6000CDB7DEB76C0181E0D60158968C935897C9
:100D70005B969C915B975C968C915C97981307C0EF
:100D80005096ED91FC915197808185FD2DC0F60123
:100D9000038D10E00F5F1F4F0F731127F02EF60128
:100DA000848DF81210C00FB607FCF9CFD60150960B
:100DB000ED91FC915197808185FFF1CFC601698348
:100DC00085DF6981ECCF838DE80FF11DE35AFF4F7A
:100DD0006083D6015B960C935B975296ED91FC91E4
:100DE0005397808180620CC0D6015696ED91FC919C
:100DF000579760835096ED91FC9151978081806464
:100E0000808381E090E00F90DF91CF911F910F914F
:100E1000FF90DF90CF900895BF92CF92DF92EF9234
:100E2000FF92CF93DF93EC016A017B01B22EE88938
:100E3000F98982E08083411581EE580761057105CB
:100E400099F060E079E08DE390E0A701960106D487
:100E500021503109410951095695479537952795F4
:100E6000211580E1380790F0E889F989108260E85F
:100E700074E88EE190E0A7019601F0D3215031098A
:100E8000410951095695479537952795EC85FD857C
:100E90003083EE85FF852083188EEC89FD89B08232
:100EA000EA89FB89808180618083EA89FB8980816E
:100EB00088608083EA89FB89808180688083EA89F1
:100EC000FB8980818F7D8083DF91CF91FF90EF90B0
:100ED000DF90CF90BF9008951F920F920FB60F92A0
:100EE00011240BB60F922F938F939F93EF93FF9341
:100EF000E0918402F09185028081E0918A02F09174
:100F00008B0282FD12C0908180918D028F5F8F7362
:100F100020918E02821751F0E0918D02F0E0EC58A2
:100F2000FD4F958F80938D0201C08081FF91EF91DD
:100F30009F918F912F910F900BBE0F900FBE0F902E
:100F40001F9018951F920F920FB60F9211240BB697
:100F50000F922F933F934F935F936F937F938F9352
:100F60009F93AF93BF93EF93FF9384E792E0AEDE3E
:100F7000FF91EF91BF91AF919F918F917F916F9171
:100F80005F914F913F912F910F900BBE0F900FBE2D
:100F90000F901F90189584E792E02FDE21E0892BB7
:100FA00009F420E0822F08951092770210927602C1
:100FB00088EE93E0A0E0B0E080937802909379020D
:100FC000A0937A02B0937B028DE292E09093750237
:100FD000809374028DEC90E0909381028093800264
:100FE0008CEC90E0909383028093820288EC90E0F6
:100FF000909385028093840289EC90E0909387021D
:10100000809386028AEC90E0909389028093880214
:101010008EEC90E090938B0280938A0210928D0266
:1010200010928E0210928F02109290020895CF9229
:10103000DF92EF92FF920F931F93CF93DF937C0188
:101040006A01EB0100E010E00C151D0571F06991DB
:10105000D701ED91FC910190F081E02DC701199528
:10106000892B19F00F5F1F4FEFCFC801DF91CF9190
:101070001F910F91FF90EF90DF90CF9008954F92C6
:101080005F926F927F92AF92BF92CF92DF92EF9278
:10109000FF920F931F93CF93DF93CDB7DEB7290154
:1010A0003A01621B730B840B950B2A893B894C898F
:1010B0005D892A193B094C095D092A8B3B8B4C8BB6
:1010C0005D8B9B01AC016A897B898C899D89B7D234
:1010D000E418F50806091709A8019701E1D22A0DBD
:1010E0003B1D4C1D5D1DCA01B901DF91CF911F91C0
:1010F0000F91FF90EF90DF90CF90BF90AF907F90D7
:101100006F905F904F9008950895B2D0FDDFA8DCF6
:10111000CAE2D6E0C8DC2097E9F39CDDFBCF1F9242
:101120000F920FB60F9211242F933F938F939F939B
:10113000AF93BF938091120390911303A091140376
:10114000B09115033091110323E0230F2D3720F4C4
:101150000196A11DB11D05C026E8230F0296A11D11
:10116000B11D209311038093120390931303A09356
:101170001403B09315038091160390911703A09167
:101180001803B09119030196A11DB11D8093160398
:1011900090931703A0931803B0931903BF91AF91D5
:1011A0009F918F913F912F910F900FBE0F901F90A5
:1011B00018952FB7F89460911203709113038091E2
:1011C0001403909115032FBF08953FB7F8948091B1
:1011D000160390911703A0911803B091190326B537
:1011E000A89B05C02F3F19F00196A11DB11D3FBF5F
:1011F0006627782F892F9A2F620F711D811D911DEF
:1012000042E0660F771F881F991F4A95D1F708950E
:10121000CF92DF92EF92FF92CF93DF936B017C012D
:10122000D4DFEB01C114D104E104F10479F006D25A
:10123000CCDF6C1B7D0B683E7340A0F381E0C81AC5
:10124000D108E108F108C851DC4FECCFDF91CF9114
:10125000FF90EF90DF90CF9008958230910538F0A5
:10126000880F991F880F991F05970197F1F7089527
:10127000789484B5826084BD84B5816084BD85B571
:10128000826085BD85B5816085BDEEE6F0E0808138
:1012900081608083E1E8F0E0108280818260808359
:1012A000808181608083E0E8F0E0808181608083DC
:1012B000E1EBF0E0808184608083E0EBF0E080810E
:1012C00081608083E1E9F0E08081826080838081B9
:1012D00081608083E0E9F0E0808181608083E1EAE1
:1012E000F0E0808182608083808181608083E0EA99
:1012F000F0E0808181608083E1E2F1E080818260C2
:101300008083808181608083E0E2F1E08081816080
:101310008083EAE7F0E0808184608083808182605E
:101320008083808181608083808180688083109247
:10133000C10008951F93CF93DF93182FEB0161E055
:101340000FD1209711F460E004C0CF3FD10531F4F4
:1013500061E0812FDF91CF911F913BC1E12FF0E040
:10136000E45DFE4F449150E0FA013197E231F1051E
:1013700008F09AC0EE58FF4FAFC184B5806884BDB5
:10138000C7BD97C084B5806284BDC8BD92C080913E
:101390008000806880938000D0938900C09388008B
:1013A00088C080918000806280938000D0938B0001
:1013B000C0938A007EC08091800088608093800006
:1013C000D0938D00C0938C0074C08091B000806871
:1013D0008093B000C093B3006CC08091B000806275
:1013E0008093B000C093B40064C080919000806886
:1013F00080939000D0939900C09398005AC0809138
:101400009000806280939000D0939B00C0939A00DC
:1014100050C080919000886080939000D0939D0090
:10142000C0939C0046C08091A00080688093A0007B
:101430008091A0008F7B8093A000D093A900C093DF
:10144000A80037C08091A00080628093A000D09354
:10145000AB00C093AA002DC08091A000886080934B
:10146000A000D093AD00C093AC0023C080912001B8
:10147000806880932001D0932901C093280119C06E
:1014800080912001806280932001D0932B01C09332
:101490002A010FC080912001886080932001D093A1
:1014A0002D01C0932C0105C0C038D1050CF050CFE0
:1014B0004ACFDF91CF911F91089590E0FC013197C1
:1014C000E231F10508F04BC0EC57FF4F05C18091A8
:1014D00080008F7703C0809180008F7D8093800093
:1014E000089580918000877FF9CF84B58F7702C0FF
:1014F00084B58F7D84BD08958091B0008F7703C03F
:101500008091B0008F7D8093B0000895809190000D
:101510008F7707C0809190008F7D03C080919000ED
:10152000877F8093900008958091A0008F7707C0F7
:101530008091A0008F7D03C08091A000877F809361
:10154000A0000895809120018F7707C0809120012D
:101550008F7D03C080912001877F809320010895B3
:10156000CF93DF9390E0FC01EE58FE4F2491FC01F5
:10157000E854FE4F8491882349F190E0880F991F29
:10158000FC01E85EFD4FA591B49182509E4FFC0195
:10159000C591D4919FB7611108C0F8948C912095A2
:1015A00082238C93888182230AC0623051F4F8949C
:1015B0008C91322F309583238C938881822B888362
:1015C00004C0F8948C91822B8C939FBFDF91CF91B4
:1015D00008950F931F93CF93DF931F92CDB7DEB77C
:1015E000282F30E0F901E45DFE4F8491F901EE58B7
:1015F000FE4F1491F901E854FE4F04910023C1F00D
:10160000882319F0698359DF6981E02FF0E0EE0F3C
:10161000FF1FE250FE4FA591B4919FB7F8948C91B3
:10162000611103C01095812301C0812B8C939FBF52
:101630000F90DF91CF911F910F9108950895DB01D5
:101640008F939F934FD0BF91AF91A29F800D911D1B
:10165000A39F900DB29F900D11240895A1E21A2E20
:10166000AA1BBB1BFD010DC0AA1FBB1FEE1FFF1F46
:10167000A217B307E407F50720F0A21BB30BE40B96
:10168000F50B661F771F881F991F1A9469F76095DD
:101690007095809590959B01AC01BD01CF01089597
:1016A000052E97FB16F400940FD057FD05D0D6DF1A
:1016B00007FC02D046F408C050954095309521951E
:1016C0003F4F4F4F5F4F089590958095709561956E
:1016D0007F4F8F4F9F4F0895EE0FFF1F0590F4919E
:1016E000E02D19940DD0A59F900DB49F900DA49F4F
:1016F000800D911D112408950790F691E02D199405
:10170000A29FB001B39FC001A39F700D811D112442
:10171000911DB29F700D811D1124911D0895505887
:10172000BB27AA270ED008C1F9D030F0FED020F098
:1017300031F49F3F11F41EF4EEC00EF4E095E7FB88
:10174000E4C0E92F0AD180F3BA1762077307840750
:10175000950718F071F49EF522C10EF4E0950B2E5A
:10176000BA2FA02D0B01B90190010C01CA01A001F3
:101770001124FF27591B99F0593F50F4503E68F14E
:101780001A16F040A22F232F342F4427585FF3CF8F
:10179000469537952795A795F0405395C9F77EF460
:1017A0001F16BA0B620B730B840BBAF09150A1F0A9
:1017B000FF0FBB1F661F771F881FC2F70EC0BA0F2F
:1017C000621F731F841F48F4879577956795B795B7
:1017D000F7959E3F08F0B3CF9395880F08F09927AF
:1017E000EE0F9795879508956CD008F481E00895E1
:1017F000BCD088F09F5790F0B92F9927B751A0F02F
:10180000D1F0660F771F881F991F1AF0BA95C9F794
:1018100012C0B13081F0C3D0B1E00895C0C0672FCD
:10182000782F8827B85F39F0B93FCCF38695779544
:101830006795B395D9F73EF490958095709561952D
:101840007F4F8F4F9F4F0895E89409C097FB3EF458
:1018500090958095709561957F4F8F4F9F4F9923FD
:10186000A9F0F92F96E9BB279395F695879577957B
:101870006795B795F111F8CFFAF4BB0F11F460FF3B
:101880001BC06F5F7F4F8F4F9F4F16C0882311F093
:1018900096E911C0772321F09EE8872F762F05C0A7
:1018A000662371F096E8862F70E060E02AF09A9542
:1018B000660F771F881FDAF7880F9695879597F937
:1018C0000895990F0008550FAA0BE0E8FEEF1616D1
:1018D0001706E807F907C0F012161306E407F50724
:1018E00098F0621B730B840B950B39F40A2661F098
:1018F000232B242B252B21F408950A2609F4A1403B
:10190000A6958FEF811D811D089597F99F6780E847
:1019100070E060E008959FEF80EC089500240A9441
:101920001616170618060906089500240A941216BA
:101930001306140605060895092E0394000C11F4ED
:10194000882352F0BB0F40F4BF2B11F460FF04C09A
:101950006F5F7F4F8F4F9F4F089557FD9058440FF3
:10196000551F59F05F3F71F04795880F97FB991FFE
:1019700061F09F3F79F087950895121613061406BB
:10198000551FF2CF4695F1DF08C016161706180648
:10199000991FF1CF86957105610508940895E89423
:1019A000BB2766277727CB0197F908958ADF08F4CC
:0819B0008FEF0895F894FFCFBA
:1019B80001000000014D000001014300005A5A5A7D
:1019C8005A5A014F00FFFF030000000144000103C1
:1019D80000000000014300010000000000A80617F5
:0A19E80008FD051606080687060034
:00000001FF
