:02000004080AE8
:1000000000000A0840110A0800000400060005016B
:0800100004020D0000000000D5
:10001800BC0F0A0809480A4908B5884205D0094AA8
:10002800824202D0121A00F0A1FF0748074A0021B5
:10003800121A00F0A6FF064808BD00BF0003002002
:1000480014110A08040300200403002040050020BE
:100058004005002070B500F015FE074B074C1E4602
:10006800E41AA4080025A54204D056F8253098477C
:100078000135F8E770BD00BFAC100A0804110A0882
:1000880000F0EAB808B500F001F9BDE8084000F052
:10009800E3BD00F0CDB90078B0FA80F040097047B0
:1000A800012303707047000030B5044695B06846D8
:1000B80021460022032300F03DFC04A82146042227
:1000C800072300F037FC08A8214608220B2300F07C
:1000D80031FC0C220F2321460CA800F02BFC00F069
:1000E80005FD594C0546214610A800F0C1FB69469C
:1000F80010A800F012FC03462846196800F0DFFA41
:1001080010A800F073FB00F04DFD2146054610A82D
:1001180000F0AEFB694610A800F0FFFB0346284636
:10012800196800F0CCFA10A800F060FB322000F04B
:100138008FF900F0DBFC454C0546214610A800F07D
:1001480097FB04A910A800F0E8FB034628461968A5
:1001580000F0B5FA10A800F049FB00F023FD214695
:10016800054610A800F084FB04A910A800F0D5FBF0
:1001780003462846196800F0A2FA10A800F036FBDA
:10018800322000F065F900F0B1FC314C05462146FB
:1001980010A800F06DFB08A910A800F0BEFB0346EC
:1001A8002846196800F08BFA10A800F01FFB00F031
:1001B800F9FC2146054610A800F05AFB08A910A82A
:1001C80000F0ABFB03462846196800F078FA10A83F
:1001D80000F00CFB322000F03BF900F087FC1D4CCE
:1001E8000546214610A800F043FB0CA910A800F012
:1001F80094FB03462846196800F061FA10A800F03D
:10020800F5FA00F0CFFC2146054610A800F030FBB7
:100218000CA910A800F081FB03462846196800F0D5
:100228004EFA10A800F0E2FA0CA800F0DFFA08A8CD
:1002380000F0DCFA04A800F0D9FA684600F0D6FA13
:10024800012015B030BD00BFD00F0A08D40F0A082E
:10025800D80F0A08DC0F0A0808B5094A09490A48EC
:1002680000F040F900F042FC4FF4165100F03AFC5F
:1002780000F098FCBDE808404FF4165100F08EBC21
:10028800E00F0A08B1000A08C1040A087047000014
:1002980008B5094B002209491A7001230B70084957
:1002A8000A70084A1370084B02221A7000F020F8EE
:1002B800064B186008BD00BF0B0300201003002088
:1002C800090300200A030020080300200C03002073
:1002D80008B5024B1B685B68019308BD9C010608C2
:1002E80008B5024B1B685B69019308BD9C010608B1
:1002F80008B5024B1B681B68019308BDB0010608CE
:1003080008B5024B1B68DB69019308BDB4010608F8
:1003180008B5024B1B681B68019308BDC401060899
:1003280008B5024B1B685B68019308BDC401060849
:1003380008B5024B1B689B68019308BDC4010608F9
:1003480008B5024B1B68DB68019308BDC4010608A9
:1003580008B5024B1B689B69019308BDC4010608D8
:1003680008B5024B1B685B6A019308BDC401060807
:1003780008B5024B1B689B6A019308BDC4010608B7
:1003880008B5024B1B68DB6A019308BDC401060867
:1003980008B5024B1B681B6B019308BDC401060816
:1003A80008B5024B1B685B6B019308BDC4010608C6
:1003B80008B5024B1B681B6C019308BDC4010608F5
:1003C80008B5024B1B685B6C019308BDC4010608A5
:1003D80008B5024B1B689B6C019308BDC401060855
:1003E80008B5024B1B68DB6C019308BDC401060805
:1003F80008B5024B1B685B68019308BDA401060899
:1004080008B5024B1B685B69019308BDA401060887
:1004180008B5024B1B685B68019308BDCC01060850
:1004280008B5024B1B681B69019308BDC801060883
:1004380008B5024B1B685B68019308BDA00106085C
:1004480008B5024B1B689B68019308BDA00106080C
:100458000021FFF7D5BF0000064B002206491A709D
:1004680001230B7005490A70054A1370054B0222D7
:100478001A7070471403002015030020120300208F
:100488001303002011030020064B002206491A70AE
:1004980001230B7005490A70054A1370054B0222A7
:1004A8001A707047190300201A0300201703002050
:1004B800180300201603002010B588B004466846CB
:1004C80000F0D6F9694604A800F0F4F904A8A0479A
:1004D800044604A800F08AF9684600F087F9204627
:1004E80008B010BDF0B507460E46154685B0102475
:1004F80022466846002100F044FD22466846002155
:1005080000F03FFD002069460246ADF80040029722
:1005180003960195FFF77CFF05B0F0BD064B00225E
:1005280006491A7001230B7005490A70054A1370B1
:10053800054B02221A7070471E0300201F0300207B
:100548001C0300201D0300201B030020064B002273
:1005580006491A7001230B7005490A70054A137081
:10056800054B02221A707047230300202403002041
:10057800210300202203002020030020064B002234
:1005880006491A7001230B7005490A70054A137051
:10059800054B02221A707047280300202903002007
:1005A800260300202703002025030020704710B5EC
:1005B8000446FFF76EFD204610BDF8B50F4600F162
:1005C8000806051D002416F8011D38460A2200F009
:1005D800ACF8AE42044407D0002CF4D038462E21A3
:1005E80000F05EF80444EEE72046F8BD10B59DF82B
:1005F800084044EA032343EA024242EA0161042331
:100608004160037510BD000037B50446044D056010
:100618009DF818500095FFF7E9FF204603B030BD5C
:10062800F00F0A08064B002206491A7001230B70C6
:1006380005490A70054A1370054B02221A70704763
:100648002D0300202E0300202B0300202C03002064
:100658002A030020F8B506460D468F180024BD422F
:100668000CD0336830469B6815F8011B9847002862
:1006780001DB0444F3E7002C08BF04462046F8BD1C
:1006880070B505460C46084649B100F08AFC2B684F
:10069800024621462846BDE87040DB68184770BD11
:1006A80003689B68184738B50D210546FFF7F8FF22
:1006B8000A2104462846FFF7F3FF204438BD38B521
:1006C8000546FFF7DDFF04462846FFF7ECFF204408
:1006D80038BD012A98BF0A2230B50B468BB00021DD
:1006E8008DF824100DF12304B3FBF2F505FB12334A
:1006F800DBB2092B94BF30333733DBB2214604F821
:1007080001392B46002DEFD1FFF7BAFF0BB030BDF2
:1007180010B52AB9BDE810400368C9B29B681847EC
:10072800D2B2BDE81040FFF7D4BFFFF7F1BF000019
:10073800064B002206491A7001230B7005490A70FE
:10074800054A1370054B02221A70704732030020C5
:100758003303002030030020310300202F03002042
:10076800704710B50446FFF794FC204610BD000002
:1007780010B50446044B017103600846FFF7C0FD3D
:100788000023A360204610BD08100A08064B00226B
:1007980006491A7001230B7005490A70054A13703F
:1007A800054B02221A7070473703002038030020D7
:1007B800350300203603002034030020064B0022B6
:1007C80006491A7001230B7005490A70054A13700F
:1007D800054B02221A7070473C0300203D0300209D
:1007E8003A0300203B0300203903002010B50446DB
:1007F8000068FFF71DFE204610BD10B504460068CE
:1008080008B1FFF715FE00232360A360636010BDE5
:1008180038B504460D4600680131FFF711FE10B1E6
:1008280084E82100012038BD10B50368044613B1DF
:1008380043688B4207D22046FFF7EAFF20B1A3683E
:100848000BB922681370012010BD70B50E46114611
:1008580004461546FFF7E8FF18B92046FFF7CDFF15
:1008680004E0A5602068314600F093FB204670BD87
:1008780038B50023044603604360836003730D4664
:1008880039B1084600F08DFB294602462046FFF79D
:10089800DCFF204638BD884210B50B46044607D019
:1008A800096819B19A68FFF7D0FF01E0FFF7A5FFC3
:1008B800204610BD10B504460023036043608360E2
:1008C8000373FFF7E8FF204610BD38B505460C4610
:1008D80041B1084600F065FB214602462846FFF76D
:1008E800B4FF01E0FFF789FF284638BD70B504461C
:1008F80083680E4609B9002070BD62B1D518294633
:10090800FFF792FF0028F6D02068A3683146184404
:1009180000F03FFBA560012070BD0B4610B59A683A
:1009280009680446FFF7E2FF10B92046FFF765FFA4
:10093800204610BD2DE9F0411C469A4288BF134657
:100948000E46154688BF25460D4988BF1C460746F2
:10095800FFF78EFFB1688D420FD88C4228BF0C4636
:100968003368002213F804801A5531683846294440
:10097800FFF7ABFF336803F804803846BDE8F08121
:10098800DB0F0A08074B0020074A18700123137071
:10099800064A1070064A1370064B02221A70FFF7B7
:1009A80027BD00BF41030020420300203F03002071
:1009B800400300203E030020064B002206491A701F
:1009C80001230B7005490A70054A1370054B022272
:1009D8001A70704746030020470300204403002094
:1009E8004503002043030020024B1A68024B1A609B
:1009F800704700BF0003002048030020064B002278
:100A080006491A7001230B7005490A70054A1370CC
:100A1800054B02221A7070474F0300205003002034
:100A28004D0300204E0300204C030020064B0022FB
:100A380006491A7001230B7005490A70054A13709C
:100A4800054B02221A7070475403002055030020FA
:100A580052030020530300205103002070474174C3
:100A68007047007CFFF784BC007CFFF781BC007CEA
:100A7800FFF78EBC007CFFF783BC007CFFF790BCBF
:100A880010B50446FFF705FB204610BD70B5457C40
:100A980004460E4625B9007CFFF78AFC002805DDD0
:100AA800207C3146BDE87040FFF75ABC284670BD2F
:100AB80010B50446002060604FF47A70A0600648C4
:100AC8002174206001206074084611461A46FFF719
:100AD8003FFC204610BD00BF48100A08007C0023D8
:100AE800FFF77EBC0022FFF7F9BF000038B50C4DB8
:100AF800296811F0010411D12846FFF7CCFA68B132
:100B08002146084A084B0948FFF7D2FF2846FFF755
:100B1800C7FA06480649074A00F050F9034838BDA5
:100B2800F0030020F40300206C0300205803002089
:100B3800650A0A0804030020017470477047002002
:100B4800FFF7F6BB0120FFF7F3BBFFF739BC08B589
:100B5800FFF7E6FB08BD38B505460C46FFF730FC45
:100B6800002801DC287C18B12046FFF7E9FB0120AA
:100B780038BDFFF72DBC10B50446FFF78AFA2046AA
:100B880010BD0000002242604FF47A728260024A6F
:100B9800026001220274704778100A080846FFF7BD
:100BA800B7BB000010B50A4C2368DB070ED42046FB
:100BB800FFF771FA50B10748FFF7E4FF2046FFF747
:100BC8006FFA04480449054A00F0F8F8014810BDD6
:100BD8008C04002078040020450B0A080403002038
:100BE8007047002001460246FFF71ABC0348044B31
:100BF8000449054A036000F0E1B800BF90040020F2
:100C0800A8100A08E90B0A080403002008B50F4BCE
:100C180033B1FFF7C7FF03681B69984700280DDC4D
:100C28000B4B33B1FFF762FF03681B699847002835
:100C380007DC084B43B1AFF3008008BDAFF3008079
:100C4800EEE7AFF30080F4E708BD00BF0000000046
:100C5800000000000000000008B5FFF7D7FFFFF70D
:100C68003FFB014B186008BD9C0400200248034A62
:100C78000349121A00F07AB90040024004400240C9
:100C880010110A0838B5094C094D23685A1B5342FC
:100C98005341084A137013B9FFF7E8FF2560064B64
:100CA8001BB1FFF715FBAFF3008038BD00400240D1
:100CB8001E1C279A9404002000000000064B002206
:100CC80006491A7001230B7005490A70054A13700A
:100CD800054B02221A7070479804002099040020DE
:100CE800960400209704002095040020064B00225B
:100CF80006491A7001230B7005490A70054A1370DA
:100D0800054B02221A707047A3040020A404002097
:100D1800A1040020A2040020A004002013B5084C60
:100D2800002100910A460B462046FFF76DFC20463D
:100D38000449054A02B0BDE8104000F03FB800BFC2
:100D4800A8040020B5050A0804030020F8B5124BD2
:100D580000211970114B01241C70114B114F19708F
:100D6800114B02221C70114B114E124D38461A704D
:100D7800FFF7FEFC3846104F2A46314600F01EF8B1
:100D880021463846FFF7F4FC384631462A46BDE886
:100D9800F84000F013B800BFC3040020C4040020CA
:100DA800C1040020C8040020C2040020C0040020A0
:100DB80069070A0804030020D404002003460846F3
:100DC800194600F0C5B80000244B1A68D0075CBF6C
:100DD80001221A60224B1A68D1075CBF01221A60EF
:100DE800204B1A68D2075CBF01221A601E4B1A6892
:100DF800D0075CBF01221A601C4B1A68D1075CBF80
:100E080001221A601A4B1A68D2075CBF01221A60C5
:100E1800184B1A68D0075CBF01221A60164B1A6873
:100E2800D1075CBF01221A60144B1A68D2075CBF55
:100E380001221A60124B1A68D0075CBF01221A609F
:100E4800104B1A68D1075CBF01221A600E4B1A6852
:100E5800D2075CBF01221A60704700BF0C05002052
:100E6800080500200405002000050020FC040020DF
:100E7800F8040020F4040020F0040020EC04002012
:100E8800E8040020E4040020E0040020244B1A6851
:100E9800D0075CBF01221A60224B1A68D1075CBFD9
:100EA80001221A60204B1A68D2075CBF01221A601F
:100EB8001E4B1A68D0075CBF01221A601C4B1A68C7
:100EC800D1075CBF01221A601A4B1A68D2075CBFAF
:100ED80001221A60184B1A68D0075CBF01221A60F9
:100EE800164B1A68D1075CBF01221A60144B1A68A6
:100EF800D2075CBF01221A60124B1A68D0075CBF88
:100F080001221A60104B1A68D1075CBF01221A60CF
:100F18000E4B1A68D2075CBF01221A60704700BFE7
:100F28003C0500203805002034050020300500204D
:100F38002C0500202805002024050020200500207D
:100F48001C050020180500201405002010050020AD
:100F580038B5054604480C46134620B102202946F8
:100F68002246AFF3008038BD0000000010B5431ED4
:100F78000A44914204D011F8014B03F8014FF8E7F5
:100F880010BD03460244934202D003F8011BFAE75E
:100F98007047034611F8012B03F8012B002AF9D1F9
:100FA8007047034613F8012B002AFBD1181A0138A1
:100FB800704700001D000A085D000A0889000A0839
:100FC8008D000A0800000000666C20006672200090
:100FD800626C2000627220006D6F76650000000070
:100FE8000000000000000000C3050A08B5050A0853
:100FF800B7050A080000000000000000000000001B
:1010080069070A086B070A085A00252B3033643A27
:10101800253032750025592D256D2D256454254818
:101028003A254D3A2553257A0061736374696D65D5
:1010380000000000000000000000000000000000A8
:10104800650A0A08890A0A08950A0A085D060A084C
:10105800710A0A087D0A0A08770A0A08830A0A0830
:10106800670A0A086B0A0A0800000000000000006E
:10107800450B0A087F0B0A085F0B0A085D060A0879
:10108800570B0A08470B0A084D0B0A087B0B0A087E
:10109800530B0A08410B0A0800000000000000007A
:1010A800EB0B0A0899020A0861040A0891040A0865
:1010B80025050A0855050A0885050A082D060A089F
:1010C80039070A0895070A08C5070A088D090A0892
:1010D800C1090A08F1090A08050A0A08350A0A08AE
:1010E800F50B0A08C50C0A08F50C0A08250D0A08AC
:1010F800550D0A08D10D0A08950E0A0800000000CF
:081108000000000000000000DF
:0411100000000000DB
:0411140031100A0884
:10111800FFFFFFFF00000102030405060708090A94
:101128000B0C0D0E0F101112131415161718191A8F
:081138001B1C1D1E1F202800D6
:041140007856341297
:04000005080A0018CD
:00000001FF
